:020000022000DC
:1060000000000120756302005D6302005F6302000F
:106010006163020063630200656302000000000028
:1060200000000000000000000000000067630200A4
:1060300069630200000000006B6302006D630200F0
:1060400035AA02006F6302007DAE020019970200BC
:106050006F6302006F630200F9AC02006F6302001D
:106060006F6302006F6302006F6302006F630200E0
:106070006F6302006F6302006F6302006F630200D0
:106080006F630200C17202006F6302006F6302005F
:106090005D7302006F630200E50203006F6302009C
:1060A0006F6302006F6302006F6302006F630200A0
:1060B0006F6302006F630200000000000000000038
:1060C0006F6302006F6302006F6302006F63020080
:1060D0006F6302006F6302006F6302000000000044
:1060E00000000000000000000000000000000000B0
:1060F00000000000000000000000000000000000A0
:10610000000000000000000000000000000000008F
:10611000000000000000000000000000000000007F
:10612000000000000000000000000000000000006F
:10613000000000000000000000000000000000005F
:10614000000000000000000000000000000000004F
:10615000000000000000000000000000000000003F
:10616000000000000000000000000000000000002F
:10617000000000000000000000000000000000001F
:10618000000000000000000000000000000000000F
:1061900000000000000000000000000000000000FF
:1061A00000000000000000000000000000000000EF
:1061B00000000000000000000000000000000000DF
:1061C00000000000000000000000000000000000CF
:1061D00000000000000000000000000000000000BF
:1061E00000000000000000000000000000000000AF
:1061F000000000000000000000000000000000009F
:10620000354936480A1A02D0072291438D4634494F
:1062100034480A1A06D00722914381F309880222E2
:1062200082F3148830483149314A00F044F831484B
:106230003149324A00F03FF831483249324A00F0E1
:106240003AF832483249334A00F035F83248334997
:10625000334A00F030F833483349344A00F02BF821
:1062600033483449344A00F026F83448344900228F
:1062700000F02CF833483449002200F027F8334866
:106280003349091A082902DB002202604160314AC1
:1062900090471F481F49884205D00268043003B464
:1062A000904703BCF7E700208646EC46002000211B
:1062B000294A9047FEE7884207D0521A05D0037852
:1062C00001300B700131013AF9D17047884202D098
:1062D00002700130FAE770470000012000E0002062
:1062E00000000120000001209C3D03002C5C0020E8
:1062F000945C0020D4630200D46302007411030094
:106300009C3D03002C5C00202C5C0020FC12030050
:10631000FC120300FC120300FC120300FC12030039
:10632000FC120300FC120300FC1203009C3D03005E
:10633000043E0300945C0020945C0020945C0020E8
:106340004C7100204C7100204C7100204C710020D9
:106350004C9100209D630200D9BC0200FEE7FEE7DD
:10636000FEE7FEE7FEE7FEE7FEE7FEE7FEE7FEE705
:10637000704700BF1048804710484FF0070188431E
:1063800085460F4880470F48016841F4700101605D
:10639000BFF34F8FBFF36F8FFFF732BF0A480B4930
:1063A0000B4A884207D0521A05D0037801300B708F
:1063B0000131013AF9D170477163020000000120F8
:1063C00051A4020088ED00E0E8120300185C0020F0
:0463D0002C5C002021
:1063D4007047000007B5044B0093044A402300F0C3
:1063E40032F803B05DF804FBF5630200955C00200D
:1063F4002DE9F84389461446B2B10F4B0F4E0325DD
:10640400002743F00108224609EB0701002005F0AC
:10641400FDFC0744241A48B933782BB14FF47A4071
:10642400C047013D02D13570BDE8F88301233370C4
:10643400002CE8D1F8E700BF00130300945C0020AF
:10644400704705F037BDF0B595B01C4616460846B2
:106454000D4602F03DFF1A9B0D93CDE9086400241C
:106464002346082205A928460A948DF82C400C944A
:1064740002F04BFF079B0293069B03939DF8143095
:106484008DF8114003F00302012A1DD1BDF8144018
:10649400059EC3F3C203C4F383148DF81030A20025
:1064A40008230EA9284602F030FFC6F3952608AB50
:1064B4000093224602AB0EA9304600F005FC2846A4
:1064C40002F00AFF15B0F0BD022AF8D1BDF816405B
:1064D400C3F3C203A4098DF810300827082C2646FC
:1064E40028BF08263B4632460EA9284602F00DFF77
:1064F400A41B08AB02AA31460EA8374400F048FC9E
:10650400002CEBD1DBE7704707B5044B0093044A3A
:106514004023FFF798FF03B05DF804FB71650200A8
:10652400D65C002030B50D4D0FCD89B06C460FC43C
:1065340095E80F0084E80F00062300226946084806
:10654400009304F00DFA18B1064A432100F0DAFD75
:10655400054B00221A7009B030BD00BF14130300AC
:106564002C5C002040130300D55C002038B50E4B92
:106574000E4D002018700E4804782D5DD2B21C46D2
:1065840075B1043005F0AEF818B10A4A532100F091
:10659400B9FD094B1A7812B12378002BFBD038BD12
:1065A4000C3004F097FEEFE7165D002074690020BC
:1065B4002C5C002040130300D55C002008B508487B
:1065C400084A0378D35C33B1043005F027F8BDE8FA
:1065D4000840FFF7A7BF0C3004F018FEF7E700BF30
:1065E4002C5C002074690020FFF79CBF38B50A4D6D
:1065F400FFF727FF0421284600F0D4FA074B0124B3
:106604005C71FFF7F1FF042105F1100000F0CAFAF4
:10661400034B5C7138BD00BFC8120300405C00200E
:10662400485C0020037813F0040216D003F003033F
:10663400012B03D0022B09D0012070470A6800887F
:106644000232C0F3831002440A60F5E70B68428803
:10665400023303EB92130B60EEE710467047000021
:106664002DE9F04F87B000230446851C0DF1070087
:106674000F4690468DF8073001F060F845480668EB
:106684003E60D0E90132134401339B1B824600F281
:106694001C4600F5836900F21447AB421BD3002269
:1066A400B8F1000F70D0052363F3070264F3891275
:1066B400DAF80010DAF808309DF807000B400333CD
:1066C4000D444AF82320CAF8005001F05BF8012079
:1066D40007B0BDE8F08F0121304602F07AF8484651
:1066E40002F090F8384602F08DF8DAF80400DAF88F
:1066F40008B0029000EA0B0003300AEB800002A904
:10670400FFF790FF029B50BB0BEA03020AEB8202E5
:1067140003F1020CD2680392013303EA0B0B0AEB78
:106724008B0B02F00302012ACDF808C0DBF80C1031
:1067340022D0022A16D08346384602F066F810B1F9
:10674400029BCAF804305946304602F042F8DAE9AE
:1067540001231344DAF8002001339B1A9DE70BEA66
:106764000300C9E7BDF80E309B0903334FEA114B10
:106774000CEB93030293DFE7BDF80C30C3F38313F0
:106784004FEA114B6344F5E7062363F3070264F30E
:106794009F528DE7E85D00200B4B0C48FF2210B59B
:1067A4009A600022C3F81824C3E90022C3F8142411
:1067B400012283F8202402F044FD044610B9044861
:1067C40002F0ECFD204610BDE85D0020F41103004A
:1067D400D413030030B50A4C71B10A4A0A49121B9A
:1067E400D20800239A4201D1002030BD31F8235051
:1067F400854202D00133F5E7034654F83300F4E749
:1068040008120300C81203002C5C0020094B013954
:1068140003EBC000032909D8DFE801F00A020406EB
:106824000420704700797047407970470020704712
:106834000220704708120300034BD3E90030C31A47
:1068440058425841704700BFE85D00202DE9F043ED
:1068540087B0FFF7F1FF0646002840F0FB807E4D2D
:10686400C5F81804BFF34F8F6868AC6802902040E5
:10687400033005EB800002A9FFF7D4FE029B18B198
:10688400D5F81824002A5FD004EA0302991C0133C6
:1068940005EB8202234005EB8303D268DB68049393
:1068A40002F00303022B0392029162D1BDF80E3071
:1068B4006A484FEA9318B8F1500FC14628BF4FF009
:1068C400500969F38F1309F10801ADF80E3002F095
:1068D400D0FC0746002800F0A88002F0F9FC03A9C8
:1068E40000230822384602F006FD029924EA010634
:1068F4000136B600B14535D95FFA89F97EB3F6B2EF
:10690400A9EB0609214003315FFA89F4B146544EDC
:1069140005EB810108234A46384602F0ECFC36B107
:1069240009F1080322463146384602F0E4FC029B92
:1069340008F1030803EB98030293D5F81834002BED
:106944004BD1D5F810445BE02A689A4204D86A60B7
:10695400304607B0BDE8F08304EA030088E7404905
:106964003446D7E72140033108234A4605EB810129
:10697400DAE7012B59D1BDF80C303848C3F3831141
:10698400062928BF062161F3891302318900ADF875
:106994000C3002F06EFC0746002846D002F098FC4A
:1069A4000023082203A9384602F0A5FC0026BDF8FE
:1069B4000C20C2F38312B300964203F10803BCD245
:1069C40002994A1C21400331029205EB8101042201
:1069D400384602F090FC0136E9E7384602F07CFCC8
:1069E400FFF72AFF80F00100C6B2B1E7E3685B79E4
:1069F40023B1236839461B6820469847E3681C681E
:106A0400002CF3D1384602F067FC0DF107008DF835
:106A1400074000F093FED5F818340BB9029B6B6065
:106A24009DF8070000F0AEFEDAE7D5F8104454B93B
:106A34000C4B0D480D49C01AC008000440F0020078
:106A440000F06EF8CCE7236820469B689847E3681B
:106A54001C68ECE700267BE7E85D0020F4110300E6
:106A6400F45D00200812030038120300E013030051
:106A74002DE9F74F284C80460F46924601A9012282
:106A840018469B46D4F80890FFF7EAFD80B3019DB1
:106A94000026A91C5E4506EB010233D100211F48E4
:106AA40001F056FE80F310006A1C02EA090204EBAE
:106AB4008202000405EA0903033340EA1840D06067
:106AC40014F8232068F3C50204F8232034F82320A3
:106AD40066F3891224F8232054F8232067F39F22B5
:106AE40044F8232002F0F80242F0010204F82320C3
:106AF40094F820341BB1FFF7A9FE0028FBD103B0A2
:106B0400BDE8F08F09EA020204EB82025AF826304B
:106B1400D3600136BEE700BFE85D002004620020B8
:106B240000231A46FFF7A4BF07B50123019201AA67
:106B3400FFF79EFF03B05DF804FB07B5CDE9002322
:106B440002236A46FFF794FF03B05DF804FB1FB508
:106B5400CDE90123069B039301AA0323FFF788FFD2
:106B640005B05DF804FB1FB5CDE90023069B029335
:106B7400079B03936A460423FFF77AFF05B05DF889
:106B840004FB7FB5CDE90123089B0393099B049380
:106B94000A9B059301AA0523FFF76AFF07B05DF876
:106BA40004FB000030B50F49D1F81024002314462B
:106BB4003CB9C468237152B9C1F810042260184664
:106BC40030BDE46825799D4206D02468F0E7D26898
:106BD400116821601060F2E701330A2BE7D14FF00E
:106BE400FF33ECE7E85D0020094A38B50123D2F809
:106BF400104482F820341D4604B938BDE3685D7141
:106C0400236820465B689847E3681C68F4E700BF84
:106C1400E85D0020037A052B10B50C460FD0437AAB
:106C240023B1084A0849204601F052FE074920468C
:106C340001F04EFE2046BDE8104001F03EBE002AA1
:106C4400F8D0F3E72B140300AB2F03004D1403001B
:106C5400C38873B504460D4633B1144A00921449EF
:106C6400144A284601F034FE217A05291CD0637A9F
:106C74004BB1A088FFF7CAFD0F4B104953F82020F1
:106C8400284601F025FE227A0D4BA08853F8226095
:106C94000021FFF79FFD0B4903463246284602B008
:106CA400BDE8704001F014BE02B070BD2B140300A7
:106CB4003814030030140300F8130300AB2F03004F
:106CC4005C140300501403002DE9F04385B01F4603
:106CD4000C9D002306460C46904695F80C902B73A9
:106CE40029463846FFF7B4FFB8F1060F09D8DFE8A4
:106CF40008F00412181F283340003146284601F0DA
:106D0400E7FD002229463846FFF784FF85F80C90FA
:106D140005B0BDE8F08322683146284601F0D8FD6D
:106D2400EFE7D4E900233146284601F0D1FDE8E736
:106D3400A36800933146D4E90023284601F0C8FD36
:106D4400DFE7E3680193A36800933146D4E90023A5
:106D5400284601F0BDFDD4E723690293E36801935B
:106D6400A36800933146D4E90023284601F0B0FD1E
:106D7400C7E76369039323690293E3680193A368F4
:106D840000933146D4E90023284601F0A1FDB8E779
:106D940008292DE9F84F80460E4617461C463AD876
:106DA400002593F80C901D7319461046FFF750FF09
:106DB400DFF884A0DFF884B0AE422ED918F805209D
:106DC4005946204601F084FD0135082DF4D11849B7
:106DD400DFF86CB0204601F07BFD4FF0000A564509
:106DE40020D918F80A507E2D03D8284609F0E6FC6D
:106DF40000B92E252A465946204601F069FD0AF1BC
:106E0400010ABAF1080FEAD1012221463846FFF7F8
:106E140001FF84F80C90BDE8F88F5146204601F03C
:106E240057FDD1E70349204601F052FDE7E700BFD3
:106E34002614030024140300221403001C1403006A
:106E4400281403002DE9F04F394E87B04FF00009A4
:106E5400384B1B785FFA89F5AB4202D807B0BDE81E
:106E6400F08F354BD3F800A01AF835000124D6E989
:106E7400001EA0F12002C0F1200304FA02F224FA59
:106E840003F3134304FA00FC009301EA0C03029396
:106E9400009B0EEA03030393DDE9022313430AEB89
:106EA400C50B41D0009B21EA0C012EEA0303C6E97D
:106EB400001303F015FF1AF835502049A5F12002FC
:106EC400C5F1200304FA02F224FA03F31343D1E9CF
:106ED40000C2AC40134004EA0C0105930024C3B281
:106EE400CDE90034009A0491C5F12003A5F12001F5
:106EF40022FA03F302FA01F848EA03081346AB4006
:106F04001F46DDE90434444508BFBB420CD1DBF81D
:106F140004304BB19BF801104A1E51425141081AEA
:106F2400414241412846984709F1010990E700BFD1
:106F3400D8620020A4620020E0620020D062002019
:106F44002DE9F0418046204800F0E8FBD0BB012544
:106F5400A8F12004C8F1200325FA03F305FA04F488
:106F64001C431A4BD3E9001205FA08F501EA050699
:106F740002EA040756EA07001E461DD1404603F004
:106F8400AFFE134BD3E9001288B129432243C3E96E
:106F94000012D6E900231C430E4B0B481968154315
:106FA400C6E900540022BDE8F04100F071BB21EABB
:106FB400050122EA0402EAE721EA050522EA0404BB
:106FC400C3E90054BDE8F081AC620020D86200201F
:106FD400D0620020A8620020042A2DE9F34105466E
:106FE4000C4616463AD903F0B7FDD8B11C4B1D49DF
:106FF4001D601D4BDFF884801C701C4B00221E603A
:107004000023C1E900231A49C1E90023013CE4B289
:1070140000260327FF2C0CD1164A1748002100F044
:1070240025FB03E003F060FD0028DFD002B0BDE8DB
:10703400F08123B205EBC30201A992788DF80520F3
:1070440015F833008DF8066042468DF8047003F09D
:107054008DFD013CE4B20028DCD0E7E70720E5E73A
:10706400E0620020D0620020A4620020A862002018
:10707400D8620020496E0200C4140300456F020068
:1070840070B5084D084E00242B789C4201D3002093
:1070940070BD3368012113F8340003F0DBFD0134C3
:1070A400F2E700BFA4620020E062002082B0012366
:1070B4008DF807309DF80730114B1860596044F281
:1070C400010188429A6012D044F20201884206D13A
:1070D400DA60DA6812889A61DA685268DA6172B63C
:1070E4009DF80730002BFBD162B602B070471A61DD
:1070F4001A6992685A611A6912689A611A69ECE706
:10710400E462002000B583B002900091019244F241
:10711400010071466A4600F003F803B000BD0000A8
:107124002DE9FF4106460F46154672B6FFF75CFD92
:10713400FFF78CFB0028FBD1234B244CE41AE40812
:1071440041F2010324049E4244F0010428D007D8EC
:10715400012E14D03A461E492046FFF7E5FC12E002
:1071640044F201039E421DD044F202039E42F1D137
:107174002B886A6817492046FFF7DFFC03E01649AD
:107184002046FFF7CDFC154B1B68DB0700D500BE7E
:107194002A463946304604B0BDE8F041FFF786BFC1
:1071A4000F49EDE7D5F80880404602F035F92B6821
:1071B400029701936B6800930A49034642462046AE
:1071C400FFF7DFFC0849DBE708120300381203006D
:1071D4005B15030007150300C8140300F0ED00E07D
:1071E400E51403002115030047150300094A5378E9
:1071F40091780133DBB2994208BF00231178994298
:107204001FBF03705078182303FB002014BF043001
:10721400002070470463002073B5054600240DF177
:1072240007000E468DF8074000F088FA0DF10600BD
:10723400FFF7DCFF90B10670094B9DF8062045600E
:107244005A709DF8070000F09DFA24B9054B4FF4DD
:107254008012C3F80021204602B070BD0424F0E778
:107264000463002000E100E0024B4FF43C6043F073
:10727400010318478015030038B50C4B0C4C4FF430
:107284000032C3F8802001254FF48033C4F848331A
:10729400C4F808336560FFF7E7FF064BA5600024D8
:1072A4001C60FFF7E1FF044B1C7038BD00E100E0F7
:1072B400001001402064002011640020F8B51F4B29
:1072C4001F491B680025C1F84051C1F84451C1F859
:1072D4004851C1F84C51C1F80051C1F804514BB3A5
:1072E400D1F8044517490968641A24F07F442F46ED
:1072F4001A68A24209D8A41A15441A7CDE691AB184
:107304001F74D3E905209047AEB90F4A0F4B11788B
:107314001B788B4205D10133DBB2022B08BF00235B
:10732400137012780A4B43F822500A4B4FF4801220
:10733400C3F80021F8BD3346DAE700BF2464002017
:1073440000100140206400201D6400201C64002003
:107354001464002000E100E02DE9F04FA04AA149A7
:1073640013780978A04D994285B03CD00133DBB243
:10737400022B08BF002313709C4912789C4B0F68A2
:1073840053F822003B1823F07F4300220B602B6844
:1073940016461446944613B942B12B6006E01968A8
:1073A40081420ED902B12B60091A19604FF001080D
:1073B4002B68DFF844A201930027BEB9DFF840B27E
:1073C40066E0401A0C44D968C3F800C0D3F81CE046
:1073D40031B13A1922F07F42C3E90121DE611E4630
:1073E40001227346D7E70026B046E1E73446F66942
:1073F4007E4A63681268DFF80CC2A068991A21F00B
:107404007F41614500F2A58001442160012222747C
:107414002A680023C4E90133E361002A40F0A28012
:107424002C60CAE75A1C9BF80210D2B291428BF826
:10743400002004BF00228BF80020182202FB03B3B3
:107444001A799C68022A1CD0032A12D0012A1FD15F
:10745400207CE8B9D3E90312A2605A69E2609A6910
:10746400644BA2611B78002B0CBF0B460346636080
:10747400BEE700222B681146002B66D142B12B6077
:1074840006E029680A468946002A59D10023237454
:107494009BF800309BF801209A42C3D12B682FB986
:1074A400019A9A4202D1B8F1000F43D0002B73D055
:1074B400D3F800A0504D4D4BD5F804751C68DFF887
:1074C40048813E1B98F8003026F07F4603369BB96E
:1074D4004FF48033C5F84433C5F80433474B4FF4B5
:1074E40000324FF00109C3F880211A60C5F80090FA
:1074F400FFF7BAFE88F80090B2452CBF5444A41993
:1075040024F07F44C5F84045D5F80435DB1B23F04F
:107514007F43E41B033324F07F44A3420AD9D5F804
:107524000435C5F84035FFF79FFE344B4FF4003265
:10753400C3F800212F4B00221A7005B0BDE8F08F6C
:1075440094422CD09146D2699EE719740122DB69DA
:1075540092E7D31A23F07F43834234BFC31A002334
:10756400236053E721681368994213D8591A1160AC
:10757400E26155E7091AD8691A4638B10346186812
:107584008842F7D3401A1860184613462160E06118
:10759400DC6112E71346F2E7FFF76EFECAE74C45DB
:1075A40011D1CB692B6073B9DFF840E00120CDE93C
:1075B4000212CAF80800CEF800300E4B1870FFF71C
:1075C40053FEDDE902121368D269C9F81C2012B116
:1075D4001068034413602B68994218BF012755E7CC
:1075E4001C6400201D64002024640020206400200A
:1075F40014640020106400200010014000E100E049
:1076040004630020FEFF7F001164002008B5FFF72B
:1076140033FE104B00200B2218809A700E4B18601A
:107624000E4B18700E4B18700E4B4FF48012C02185
:10763400C3F8802183F814131A6002F18042A2F582
:107644006F22C2F8080583F81113074BD2F80425FA
:107654001A6008BD04630020246400201C64002018
:107664001D64002000E100E020640020074B9B78AB
:107674004BB132B128B10368187C20B959745A61EE
:107684007047072070470820704700BF046300203C
:107694002DE9F7431E4FBB7805460E469046A3B32B
:1076A40098B304292FD943697BB3437C0024012B6D
:1076B4000DF107000CBF8946A1468DF8074000F084
:1076C4003DF80DF10600FFF791FDD0B101230370E1
:1076D400104B4560D3F80435C0E90498C0E902367C
:1076E4009DF806307B709DF8070000F04BF824B934
:1076F400094B4FF48012C3F80021204603B0BDE8C3
:10770400F0830424EFE70724F7E70824F5E700BF34
:10771400046300200010014000E100E0064A927872
:107724003AB130B1426922B1002202740221FFF75A
:1077340073BD0820704700BF0463002070B5EFF3E9
:10774400108672B60C4A946801239CB993600B4B63
:107754000B4DD3F8801029401160C3F88050D3F842
:10776400841051604FF0FF32C3F88420047006B9CE
:1077740062B670BD0370FAE72864002000E100E0FF
:10778400FC06FFBD084B9A6810B55AB150B9EFF327
:10779400108172B6054A1C6814605C685460986075
:1077A40001B962B610BD00BF2864002000E100E00A
:1077B40070B5064D0646002455F8043B0BB130461F
:1077C40098470134042CF7D170BD00BF40640020F9
:1077D400033080B240F2FD33984230B51FD8124BCB
:1077E4001A783AB91C895D892C440444A4B2B4F5CE
:1077F400806F0AD31A7DA2B99A8BDC8B224402448F
:1078040092B2B2F5806F0CD201220A80144614227F
:1078140002FB04335A8910445881002030BD0920EA
:10782400FCE70720FAE700BF746400200B4A0C4B06
:107834005188142000FB0131CB6833B90420496816
:1078440010700122074801F0C7BA052306491370D6
:1078540002238B80012200230968F3E75864002087
:1078640074640020185C00203C65002007B50023E8
:1078740005490093054A09680548082301F016FAEA
:1078840003B05DF804FB00BF3C65002094150300C1
:10789400185C002007B50023009301460823034A1F
:1078A400034801F003FA03B05DF804FB8C150300F0
:1078B400185C002013B500230C46009301460423F2
:1078C400074A084801F0F2F938B9074B142202FBC1
:1078D40004340123237402B010BD0E20FBE700BF63
:1078E40088150300185C00207464002037B50A482A
:1078F4000A4B42689C881968538803250333057032
:107904009BB2002000909B0001EB8401044801F02D
:10791400CDF903B030BD00BF586400203C650020A1
:10792400185C002010B50146044800F045FE1C22F6
:107934000446002108F0CAFF204610BD2865002037
:1079440068B10268084B9A4209D14068074B9842D3
:1079540007D0013398420CBF012003207047032055
:1079640070470020704700BFDEC0ADDEFE011EF18F
:107974004388033300EB8303994209D382884FF68B
:10798400FF739A4206D00088B0FA80F0400970472D
:1079940002207047012070472DE9F8430223DFF8E5
:1079A40060800B800D46174600F5805600F10804F0
:1079B4004FF00109B4420FD2236801330CD0314691
:1079C4002046FFF7D5FF48B10FB187F80090022891
:1079D4000BD14FF480632B80BDE8F883A368D8F8FB
:1079E4000020934201D9C8F800302B886288033301
:1079F40013442B806388033304EB8304DAE700BF6A
:107A04006C640020154A142303FB002070B50B6836
:107A140044680D4604F58056ABB15C88033403EB2F
:107A24008404B4420DD2236801330AD0314620467F
:107A3400FFF79EFF01280BD010F0FF0F05D002289E
:107A4400EFD1002003E00834EBE72C60012070BD87
:107A54006388033304EB8304E3E700BF746400200A
:107A6400436873B504460D466BB3244AD1688B4210
:107A740029D31269934226D813F0030223D1204953
:107A84000089098988421ED12068996888421AD1E0
:107A94001C494868834203D900F5805083420ED3C1
:107AA4008A6993420DD902F58052934209D2012387
:107AB4002B800020B0FA80F0400902B070BD13465C
:107AC400F6E70A20F6E700232B801E46019601A95B
:107AD4002888FFF797FF30B92B8801339BB2012B1D
:107AE4002B80F3D9E9E7019B226899689142EED192
:107AF4006360034B1B892381DFE700BF185C002010
:107B040058640020746400202DE9F8431C461C4B83
:107B14001B7806460F4615466BB372B36CB3DFF899
:107B240068804FF01409A388012B01D90A2020E0B2
:107B340009FB03F318F803302BB92146A088FFF79B
:107B440061FF20B92060A3880133A380EBE7236899
:107B54001EB1998832889142EFD11FB119883A88B1
:107B64009142EAD19A68C5E90023064B1B892B810F
:107B74000020BDE8F8830220FBE70520F9E700BFF9
:107B840050640020586400207464002008B5074B3A
:107B9400191D5888FFF736FF18B1BDE80840FFF7F4
:107BA400A5BEBDE80840FFF741BE00BF58640020F1
:107BB4002DE9F04FA04FDFF8A49289B00646B846ED
:107BC4003B6823B949469D4800F030FD3860D8F839
:107BD400005029784B1E052B00F2FA80DFE813F0E1
:107BE40006005E005E00EE00EE005C0126B1944BE0
:107BF40000225A600124ECE02B79032B1DD8DFE826
:107C040003F015022A358F490B78022B084619D048
:107C14000B7D022B4FF0010316D114225343C218DB
:107C24000020C8545068FFF735FE03E001232B7190
:107C3400FFF71CFE002800F0BC80814B00225A6034
:107C44000E24C6E00023E8E77D4A13700023536046
:107C540041F61D54BDE07C497C48002302222B716F
:107C64008A800122096801F0B7F8E3E7764C002620
:107C74002E712068734DFFF70DFE754BD4F800C0CC
:107C84005A8814235343EA18EE5451682160A1889A
:107C9400C2F804C011810222A280CBE7B5F814A077
:107CA400AA7DDFF8A0B1AEB1022AEB8806D914216F
:107CB40001FB0AB1DA1C088902440A81142202FB7E
:107CC4000ABAC3F57F43BAF80A20FD331344AAF86D
:107CD4000A308FE7142303FB0AB318895C6804EBAA
:107CE4008004062A68D8DFE802F0274D35431D5981
:107CF400040041F61D54AA7DEB88022A06D91421FA
:107D040001FB0AB1DA1C088902440A81142202FB2D
:107D14000ABAC3F57F43BAF80A20FD331344AAF81C
:107D24000A3056E04B484C4900234360AB6903607A
:107D3400FFF796FE002871D00223AB750023009351
:107D44000423EA182146414800F0B0FF002830D04F
:107D54000E24D0E72B69002B14BF03230123AB753A
:107D64000023009305F10C02042304F10801EAE75F
:107D74000123AB750022EB8800929B002A6904F171
:107D84000C01E0E703290CBF05230623AB75002390
:107D94000093042305F10802E118D4E70623AB7528
:107DA4002D4B19882B4B5868FFF784FD0446002897
:107DB400A1D109B0BDE8F08F0F249CE7002E7FF419
:107DC40019AF2B79012B4BD0E3B1022B3FF440AF19
:107DD4000F241422002103A808F078FD41F61D5356
:107DE4009C4208BF0024D8F8003004941A78023A60
:107DF400042A00F20581DFE812F0E600F200150122
:107E04001D01240102232B710DF10A01EB68039378
:107E140003A8CDE90466FFF723FE08B90A24D8E7CE
:107E24000498BDF80A108388EB8003882B81FFF740
:107E340041FD044627E000BF70640020286500204F
:107E440050640020746400203C650020185C00200D
:107E540058640020346400204865002068640020D1
:107E6400DFF8FCA103AA53463146A81DFFF74CFED8
:107E7400044658B9BAF804100498FFF71BFD0446E9
:107E84000A2C3FF4E5AE002CA3D192E70822314638
:107E9400504608F01BFDF3E7002E7FF4ABAE6B4BAE
:107EA4001A7BAAB11E731A78013A062A90D801A146
:107EB40051F822F05F7F0200857F0200A37F020059
:107EC400A97F0200D57D0200AF7F0200C17F0200BE
:107ED4001A78072AE7D801A151F822F0017F02009D
:107EE400AB7E0200AB7E0200277F02003B7F0200D4
:107EF4005B7F02005B7F0200237F02001A895449E2
:107F040001321A8100225A801A730A78B2FA82F274
:107F140052099A720A7DB2FA82F25209DA72012285
:107F240007E04C4958688A884088033202448A80B2
:107F340002221A70B7E7464C5A884649142505FBB5
:107F440002420868546850608888108102228A803E
:107F54000C600622EDE70722EBE79A7A32B9DA7A67
:107F64008AB900221A705A805A6071E63849002290
:107F74009A72CA68002AF2D1097C0029EFD05A808B
:107F8400FFF704FE55E70022DA72314A116A00292C
:107F9400E7D192F82420002AE3D00122EFE7FFF78B
:107FA400A5FC46E7FFF742FC43E7294A5B88142116
:107FB40001FB03235868FFF76DFC3AE700225A607F
:107FC400FFF754FC35E701228DF80C201A89ADF82F
:107FD40018209A88DB68ADF81A20059310E0022275
:107FE4008DF80C201A89ADF818209A88ADF81A205B
:107FF400DA689B7D05929A1F534253418DF81C30D9
:1080040003A8FFF7D5FB002649461348C8F80060CB
:1080140000F037FB0121114800F0E6FB00287FF453
:10802400CFADC6E603228DF80C20DA88ADF818200F
:108034001A89CFE70422DB888DF80C20ADF81830BC
:10804400DEE705238DF80C30DAE700BF5864002022
:10805400746400203C6500202865002038650020F9
:108064004C6500204068FFF7A3BD000008B501215E
:10807400044800F0A3FB18B9BDE80840FFF798BD19
:1080840008BD00BF386500202DE9F3419846354B03
:108094001B7806460D46002B5BD000295BD009886F
:1080A4004FF6FF73994258D06B88002B55D06B68FC
:1080B4009B0754D14AB92F890DF102013846FFF7C5
:1080C40087FB30B102B0BDE8F08113885788ADF862
:1080D400023001A8FFF726FC044658B9BDF8023067
:1080E400214A142101FB032358890338C01B5881FA
:1080F4000820E7E700238375BDF8023083826B68AC
:10810400036180F800800121184800F062FB2B888D
:108114002381B8F1030F6B88A38004BF0423A375E4
:108124004FF0000508BF3368E06008BFA361E78033
:10813400658101A90E4800F069FA36B1E36833603D
:108144000C4B75601B89B5723381FFF78FFF0020DC
:10815400B8E70220B6E70520B4E70420B2E703201D
:10816400B0E700BF50640020746400206C640020F9
:10817400286500205864002008B5084B1A68042AB2
:1081840009D01968064A42F821000121184600F076
:1081940020FB002008BD0C20FCE700BF4465002044
:1081A400406400202DE9F04F14228BB000210DEB28
:1081B400020008F08BFB764A137803F0FF01CDE947
:1081C40001123BB105A8FFF7F3FA002738460BB0BC
:1081D400BDE8F08F029B181D00F011FB0028F4D1BC
:1081E40040F6F8734FF080521B685C1C08BF694B63
:1081F400694C08BF1B6811695269581C08BF02FB0F
:1082040001F323610022A3F540536449E36020464F
:1082140000F018FD039407460028D7D11C238C22B4
:108224005F496048DFF88891DFF8888100F08FF9B2
:108234003D46BA464FF0030B3C46039BDE6856446A
:1082440030463146FFF77CFB01284DD042B2002A6C
:1082540036D0032822D106F580520868013040F058
:108264008A8004318A42F8D1D9F800203AB902222E
:108274000123C9F80060A9F8042001930CE014223A
:108284006243022008EB020108F80200464A4E60ED
:10829400548001340881A4B245F001050AF5805ADE
:1082A400BAF5405FC9D1BBF1010F98BF0025EDB20B
:1082B400022D03D0062D35D0002D3CD10B2785E7A8
:1082C4001421614308EB010008F8012001F11002B8
:1082D40008314660424441443046FFF75DFB45F0B7
:1082E40002050134A4B2D9E7019B63B114226243AD
:1082F40008EB0201022008F802000134D9F800203A
:108304004A600881A4B200222849C9F800603046B6
:10831400FFF742FBB9F80420022A0CBF042208220A
:108324001543BBE7029A0123137005A80023536089
:10833400FFF73EFA4AE704A8FFF7F4FAC8B10123AD
:10834400013D03700A2D09D8DFE805F00608060888
:10835400070807080F110F000023037104A911482F
:1083640000F054F9FFF782FE30E70323F5E7022318
:10837400F3E708272AE70BF1FF321FFA82FB1422E6
:10838400624308EB02014E60032108F80210A8E7DB
:108394005064002014100010185C0020881703009B
:1083A4009C6400202865002058640020406500205B
:1083B4003C6500207464002073B50D460446C8B1C2
:1083C400C1B10DF10601FFF74BFBA8B10B4BBDF892
:1083D40006006668142202FB003001210C3000F014
:1083E400F8F963682E600C336B600123A3720020DC
:1083F40002B070BD0520FBE70A20F9E77464002091
:1084040013B50446A8B10DF10601FFF729FB90B19D
:108414000B4ABDF80630142101FB0323DA6862B16C
:10842400A27A52B1DA680020013ADA60A07202B08E
:1084340010BD0520FBE70A20F9E70620F7E700BF97
:108444007464002002230022FFF71EBE18B1032328
:108454000022FFF719BE052070470000104B1B785F
:1084640013B50446ABB14FF6FF73984213D001A87D
:10847400FFF758FA88B10523037001230371C48000
:1084840001A9084800F0C2F8FFF7F0FD002002B08F
:1084940010BD0220FBE70420F9E70820F7E700BF3E
:1084A40050640020286500200E4B1B7807B5A3B14B
:1084B40001A8FFF737FA90B10623037001A90A480F
:1084C40000F0A4F8094B1A780AB101221A73FFF7D5
:1084D400CDFD002003B05DF804FB0220FAE708207C
:1084E400F8E700BF5064002028650020586400208D
:1084F40007B5ADF80600ADF804100DF1060001A9AA
:10850400FFF702FB03B05DF804FB07B51346ADF8B3
:1085140006000A4600200DF10601FFF7F5FA03B044
:108524005DF804FB07B51346ADF806000A460DF1E5
:1085340006000021FFF7E8FA03B05DF804FB20B160
:1085440019B103680B60002070470520704710B50F
:1085540061B1B2FBF3F403FB1424A4B244B9C0E93F
:10856400001484608281C381204610BD0E20FCE784
:108574000920FAE782B050E8022FC188B2EB324FEB
:108584004FF0000317BF92B241EA014142EA0141B0
:1085940004E04268B2EB324F08BF012340E8021204
:1085A400002AE8D18DF807309DF80730002B0CBF66
:1085B4001120002002B0704737B550E8013F9DB24A
:1085C400C48925448489A54228BF2D1B0489A5425A
:1085D40002BFBFF32F8F002207E0C5EA030540E87E
:1085E4000154002CE9D14FF001028DF803200193CE
:1085F400019B9DF803200B6002F0FF0322B10B885E
:108604000068184403B030BD1846FBE70A884B885D
:108614009A4209D150E8012FC2EA024240E80123FC
:10862400002BF7D1012070470020704737B550E880
:10863400023F1FFAA3F5C488A54202BFBFF32F8FE0
:1086440000220DE0C48925448489A54228BF2D1B3E
:10865400C3EA054540E80254002CE8D14FF001027A
:108664008DF803200193019B9DF803200B6002F019
:10867400FF0322B14B880068184403B030BD18468C
:10868400FBE70A884B889A4209D150E8022FC2EAD4
:10869400224240E80223002BF7D10120704700203A
:1086A400704701F01F024B090121914000EB830048
:1086B40000F063B84B0910B501F01F040121A1407B
:1086C40000EB830000F04EF8E04000F0010010BD24
:1086D40001F01F0301229A404B0900EB8300D143B0
:1086E40000F061B84B0901F01F0150F82300C840A5
:1086F40000F0010070472DE9F0474E1E76098046D0
:108704000F460136002558F8254008EB8509E44357
:1087140094FAA4F4B4FA84F44FEA451A202C06D14E
:108724000135AE42EFD83C462046BDE8F0875444BC
:10873400A742F5D921464046FFF7BCFF0028F3D0F5
:10874400D9F80040E44394FAA4F4B4FA84F4E5E7D5
:1087540050E8002F0B4640E8003C9CF0000FF7D196
:108764001046704750E8002F42EA010340E8003CFD
:108774009CF0000FF6D11046704750E8003F43EAE2
:10878400010240E8002C9CF0000FF6D1104670471F
:1087940050E8002F02EA010340E8003C9CF0000F7F
:1087A400F6D11046704750E8003F03EA010240E862
:1087B400002C9CF0000FF6D11046704750E8002FB3
:1087C40002EB010340E8003C9CF0000FF6D1104698
:1087D400704750E8003F03EB010240E8002C9CF096
:1087E400000FF6D11046704750E8003FA3EB01029A
:1087F40040E8002C9CF0000FF6D110467047012190
:10880400FFF7B0BF0121FFF7B8BF0021FFF7C0BFDA
:1088140010B590B1D0E9012301689B1ADBB20A605C
:10882400013BDBB2FF2B026802D10020107110BDA6
:1088340011684C1C14600B70F2E70E20F7E737B593
:10884400054600240DF107008DF80740FEF776FF7A
:108854002A686B68116899420ED9481E106011F895
:10886400014CEB68298A01FB0434AB6811791B1AAB
:10887400DBB2994238BF13719DF80700FEF782FFFF
:10888400204603B030BD37B5054600230DF107007F
:108894000C468DF80730FEF751FF2A681368591CFF
:1088A4001160E968641A298AB4FBF1F41C709DF81C
:1088B4000700FEF767FF03B030BD826810B50446B9
:1088C4002AB143690168006998470023A36010BD79
:1088D4000EB403B5039921B104AB01AA019300F0CE
:1088E40075F802B05DF804EB03B070470A2938B597
:1088F40004460D4602D10D21FFF7F8FFA368226854
:10890400591CA160D554D4E901329A4204D32046BB
:10891400BDE83840FFF7D1BF38BD00002DE9F84F5E
:108924009946DDE90A431746824688460A460126E7
:10893400BA420FD24E4538BF4E4613F0010B01D157
:1089440064B900240125B9F1010F1AD909F1FF39DD
:108954007D43F8E7B2FBF7F20136E9E79B070ED552
:10896400B9F1000F0CBF30252025A642EAD2013C04
:1089740029465046FFF7BAFF002CF6D1E1E720253F
:10898400F3E7B8FBF5F39F42E2D9DFF83C90B8FB7C
:10899400F5F3504619F8031005FB1388FFF7A6FFFB
:1089A400B5FBF7F3BD4207D2BBF1000F02D00CB107
:1089B400A64203D3BDE8F88F1D46E8E720215046C0
:1089C400013CFFF793FFF2E79C1503002DE9F74FF5
:1089D400054617468846002900F0318118F8011B26
:1089E40049B92B7B002B00F02A81284603B0BDE84F
:1089F400F04FFFF762BF252940F0C080002698F8A9
:108A040000302D2B424608F1010823D0302B24D00E
:108A14002B2B25D000242A2B02F1010123D13B6802
:108A24001A1D1B683A601C440A4613782E2B26D163
:108A340001324FF0000A104610F8011BA1F1300C6E
:108A4400BCF1090F1DD80A2303FB0A13A3F1300A52
:108A54000246F0E746F00106D1E746F00206CEE70B
:108A640046F00406CBE711F8013CA3F130000928D5
:108A7400DBD80A2202FB0434303C0A46CBE74FF031
:108A8400000A12F8011B01F0FB0068289046F8D098
:108A940069290ED04AD8582964D006D825296DD022
:108AA40098F80030002B99D19BE7632962D06429A0
:108AB400F6D13A68D2F80090111D89EAE97239605A
:108AC400A2EBE9724FF0010B092A5BDCD34538BFF6
:108AD400D3462CB1B9F1000F01DB710700D5013C7D
:108AE400B20702D5BAF1000F04D0F30702D4002C68
:108AF4004ED10024B9F1000F52DAC9F100092D2139
:108B04002846FFF7F3FE06F00302022A05D1BAF164
:108B1400000F02D1002C47D10024CDE90046534672
:108B24000A2249462846FFF7F9FEB9E773294CD0D3
:108B340014D87029B4D13B681A1D3A6030212846F4
:108B44001C68FFF7D3FE78212846FFF7CFFE0022EA
:108B54000823CDE9003221461022E3E775292BD002
:108B640078299DD139680A1D3A60CDE900465346FB
:108B7400102228E03B681A1D19783A602846FFF74E
:108B8400B5FE8DE70A230BF1010BB2FBF3F29BE771
:108B9400A345AFD220212846013CFFF7A7FEA6E754
:108BA4007007B0D52B21ABE7A345B6D230212846B8
:108BB400013CFFF79BFEADE73968CDE900460A1D8D
:108BC4003A6053460A220968ACE73B681A1D3A60CA
:108BD400F107D3F8009020D4B9F1000F25D048460E
:108BE40007F0F0FE0646B44200D9C4B909F1FF39D2
:108BF40020E028460136FFF779FE19F8061000290F
:108C0400F7D1A642BFF44CAF002C3FF449AF20216A
:108C14002846013CFFF76AFEF3E70026EDE7202132
:108C24002846013CFFF762FEDDE74E46DBE72846B7
:108C3400FFF75CFE19F8011F0029F8D130E703B0F3
:108C4400BDE8F08F07B50B4688B9124B1248134A9A
:108C5400C01A0E23C0080093114B0004114940F0C0
:108C64000100FDF774FF0E2003B05DF804FB4BB95F
:108C7400084B09480C4AC01AC0080E23009300048C
:108C8400074BEBE703601B68114603B05DF804EB88
:108C9400184700BF081203005812030059160300B6
:108CA400AC1503005E160300D51603002DE9F3414D
:108CB40088B93D4B3D483E4AC01AC0080E243D4B7E
:108CC400009400043C4940F00100FDF740FF2046B9
:108CD40002B0BDE8F0814AB9334B3448374AC01A70
:108CE400C0080E2400040094324BEBE7D0F800C017
:108CF400BCF1000F09D12C4B2C48314AC01AC008D2
:108D04000824000400942B4BDCE74BB9264B27487E
:108D14002C4AC01AC008092400040094254BD1E74A
:108D24004768D7F80480B3FBF8F708FB17374FB14F
:108D34001D4B1E48244AC01AC0080924000400948C
:108D44001C4BBFE78F0709D0174B18481F4AC01A9E
:108D5400C008102400040094164BB3E712F0030F6C
:108D640009D0114B11481A4AC01AC0081024000433
:108D74000094104BA6E7C768B9420BD34C1E056993
:108D84001C44AC4206D8DCF80C40A44602B0BDE852
:108D9400F0416047044B05480E4AC01AC00810242D
:108DA40000040094034B8DE70812030058120300DB
:108DB40059160300BE1503005E160300DB160300FC
:108DC400CF1603008E160300E11603000B170300F1
:108DD4002317030046170300F7B580B92A4B2B4825
:108DE4002B4AC01AC0080E242A4B009400042A49B6
:108DF40040F00100FDF7ABFE204603B0F0BDD0F813
:108E040000C0BCF1000F09D11F4B2048234AC01AEF
:108E1400C0080824000400941E4BE8E74AB91A4B22
:108E24001A481F4AC01AC008092400040094194BA8
:108E3400DDE74768D7F800E00EF1FF370F4209D0AD
:108E4400114B1248174AC01AC00810240004009499
:108E5400104BCCE7C768B9420CD34C1E05690EFB16
:108E64000244AC4206D8DCF81040A44603B0BDE886
:108E7400F0406047044B05480B4AC01AC008102450
:108E840000040094034BB2E70812030058120300D5
:108E940059160300D11503005E160300CF16030014
:108EA4008E160300E41503000A16030029DF704739
:108EB40028DF704770B503689D6886B004460E4687
:108EC4006DB114220021684607F000FDA3680593E4
:108ED400237901962BB1012B0DD06846A84706B023
:108EE40070BD01238DF8003023690293E368039376
:108EF40063690493F1E702238DF80030E3681B03F0
:108F04000293F5E70846704700207047024B187A31
:108F1400003018BF01207047F0650020034B187A19
:108F24000122B0FA80F05A7440097047F0650020BD
:108F340008B510461A4607F0A0FC002008BD000042
:108F440008B514220021044807F0C0FC0348FFF7C9
:108F540011FB002008BD00BFF0650020E065002083
:108F640010B5094C094B43602046FFF748FC40B953
:108F740007F09CF91C2320748C2205490548FFF74F
:108F8400E6FA002010BD00BFF06500207C17030046
:108F940054650020E065002070B5244D244E2B7AE2
:108FA4002C463BB923492448FFF740FB306008B9FD
:108FB400686070BD0223237233681A7972B1012A82
:108FC40024D018460321FFF775FF00232372636042
:108FD40018491948BDE87040FFF753BBD3E9052091
:108FE400121AB2F5805F28BF4FF48052D3E90315FB
:108FF4009208012A014438BF01222844FFF756FF92
:1090040050B11128DDD101232372D2E7D3E9030241
:109014001044FFF74DFFF3E7237C002BC9D1014631
:10902400BDE87040022000F009B800BFF0650020E0
:109034000866002004660020E065002038B5831E21
:10904400012B45D8234C237A002B41D0022B09D184
:10905400032830D0204B1B680022E2601A793AB111
:10906400012A22D0637C7BBBBDE83840FFF794BF64
:10907400D3E905128D1AB5F5805F94BF521902F534
:1090840080529A619142EDD102284FF0000308BF4B
:1090940019462372104B18BF0D211868FFF70AFFF9
:1090A4000E490F48FFF7EDFADCE71A6901321A613D
:1090B4005B699A42E7E7E3680133082B01D8E36070
:1090C400D0E70023E360DFE7BDE8384007F0DEB80F
:1090D40038BD00BFF065002008660020046600204B
:1090E400E065002000F0FD03012B08D1044B0022B1
:1090F4005A74421E504250411874FFF74DBF7047D6
:10910400F065002010B5064C201DFFF778FB28B948
:10911400637C1BB9BDE81040FFF73EBF10BD00BF24
:10912400F06500202DE9F34180460D460F4801A962
:1091340016461F46FFF740FA0446A8B11C22002138
:1091440007F0C4FB2D0B0123237101A9C4F800808F
:10915400A760E56066610548FFF758FAFFF7D2FF9C
:10916400002002B0BDE8F0810420FAE7E0650020A9
:109174002DE9F74381468846104801A917461E4643
:10918400FFF71AFA0446B0B11C22002107F09EFB37
:1091940000250A9BA36001A92571C4F80090C4E9C5
:1091A400037866610548FFF731FAFFF7ABFF2846FD
:1091B40003B0BDE8F0830420FAE700BFE0650020B7
:1091C4002DE9F047B0F806904479D2F800A09DF854
:1091D400208009FB04F4043C06460AEB0300A04289
:1091E4000F4688BFA4EB030A191DC2F800A0B1FB07
:1091F400F9F509FB15114DB9A9EB0104544528BF34
:109204005446BAF1000F04D1BDE8F0873668013D39
:10921400F1E704317B1970182246B8F1000F0ED023
:1092240001461846AAEB040A07F027FBD14525445A
:1092340036684C464FF0000128BF5446E1E7194612
:10924400F0E7FFF7E5BAF8B546790146721E054620
:10925400002393422D6803D30024A64202D8F8BD0C
:109264000133F6E70F682846FFF70DFB0134394652
:10927400F3E72DE9F843068ACD1C0746FFF7DFFA2A
:10928400043E35440446B5FBF6F5F0B14FF4807363
:10929400EDB28380C680013D076081464FF000082F
:1092A400A84512D23846FFF7CAFA064648B1637990
:1092B4000133637108F10108C9F8000007608146B1
:1092C400EEE72046FFF7BFFF34462046BDE8F883AB
:1092D40001210430FFF77DBA10B5012104460430A2
:1092E400FFF782FA10F0FF0F04D12046BDE81040CA
:1092F400FFF7A9BF10BD1FB503920022009203AA75
:10930400FFF75EFF05B05DF804FB1FB50392012271
:10931400009203AAFFF754FF05B05DF804FB41DF98
:1093240070470000064B10B500241C70054B1C60F0
:10933400BFF35F8F0449054800F039F8204610BD9B
:109344001466002018660020A81703000C6600208D
:1093540007B500230DF107008DF80730FEF7EEF98D
:10936400F1EE103A23F09F03E1EE103ABFF35F8F62
:10937400094B4022C3F884219DF80700FEF702FA46
:1093840006F094FF20B1FFF7CAFF03B05DF804FBB9
:1093940020BF40BF20BFF8E700E100E0836800225F
:1093A4005A609A60C3E90422DA601A6070470B6855
:1093B4004A684360934208BF0023016008BF4360CA
:1093C4007047436843B10268916852680B44934202
:1093D400436004BF002343607047000010B50D498B
:1093E400A1F59472914201D800200FE08B1ADB1092
:1093F40003EBD3735B1002EBC30452F833308342A4
:1094040005D802D204F10802ECE7606810BD2146D9
:10941400E8E700BFF818030008B5FFF7DFFF024BC9
:10942400002808BF184608BDBD1703000023435099
:1094340082B043580193019B02B070472DE9F04775
:109444000D78089E9DF824A004460F469946002DE9
:109454005ED1D0F82431D2F800803BB14FF4927140
:10946400FFF7E4FF012363613B7017E0D0F81C3180
:1094740053B34FF48E71FFF7D9FFD0F824311BB1E9
:109484004FF492712046EBE713689E4212D919F803
:109494000330C0F81C35136801331360B04535D16F
:1094A400D4F8043193B34FF482712046FFF7BEFF22
:1094B400002504E00123BAF1000F03D0C36128465C
:1094C400BDE8F0874361E9E7D0F80831002BE5D027
:1094D4004FF48471FFF7AAFFD0F82431002BCFD1C9
:1094E40013689E42DAD9D0F8181509F803101368E6
:1094F40001331360721E934205D10223C0F8003277
:1095040001232362CAE79E42FAD1C7E70125D6E7C1
:109514004FF49271FFF78AFF4FF48E71FFF786FFC5
:109524004FF48471FFF782FFBAE700002DE9FF478B
:109534000C4605461F4620463B4B03934FF482716D
:1095440016469DF83080FFF771FF4FF49271FFF7D4
:109554006DFF4FF48E71FFF769FF4FF48471FFF7CD
:1095640065FF0023C4F800326B6385F82E300123B5
:109574002362A3606A6B97421DD9B35CC4F81C359F
:109584006B6B01336B632B68E3B905F1340A05F1A6
:109594002E09039B002B1FDC95F82E3053BB0020B3
:1095A400039B002B15DC0023C4F800350523C4F805
:1095B400003503200DE0B8F1000F01D0E361E2E7CC
:1095C4006361E0E740F28623AB60AB68C4F8043320
:1095D400002004B0BDE8F087CDE900783346524658
:1095E40049462046FFF72AFF0028D5D0039B013BBC
:1095F4000393CEE7D4F8C434C4F8C434002BCED0DB
:1096040013F0010F14BF4FF40240032048F201226B
:1096140013F0020F18BF104613F0040F48F2022390
:1096240018BF1846BCE700BFA08601002DE9FF471C
:109634000C4605461F462046354B03934FF4827172
:109644009246FFF7F3FE4FF49271FFF7EFFE4FF4EB
:109654008E71FFF7EBFE4FF48471FFF7E7FE0023F2
:10966400012F2E686B6385F82E3008BF02224FF05D
:1096740001030CBFC4F80022C4F800322362236043
:10968400AEB905F1340905F12E08039B002B18DC53
:1096940095F82E301BBB0020039B002B0EDC00230F
:1096A400C4F800350523C4F80035032006E040F271
:1096B4008623AB60AB68C4F80433002004B0BDE873
:1096C400F087CDE9007653464A4641462046FFF7E7
:1096D400B5FE0028DCD0039B013B0393D5E7D4F807
:1096E400C434C4F8C434002BD5D013F0010F14BF14
:1096F4004FF40240032048F2012213F0020F18BF76
:10970400104613F0040F48F2022318BF1846C3E7AB
:10971400A0860100F0B52C4C2C4894F82C3089B06C
:1097240004F134020193A36A0093636A04F12E01E5
:10973400FFF784FE2746E0B994F82EC0266ABCF1F0
:10974400000F1DD1217B8B1E012B19D8626AA369DE
:109754009A4215D1E26963696262C6F3401603292D
:10976400A36284F82C6006D1009618492046FFF7BE
:10977400DDFE09B0F0BD15492046FFF757FFF8E7B5
:10978400134D0FCD03AC0FC42B682360BCF1000F45
:1097940017D00E4AD2F8C434C2F8C43499070CD591
:1097A40001238DF80830002387F82F307307E0D4A5
:1097B400D7E9003102A89847DBE75A07F3D502231B
:1097C400EFE78DF808C0EEE71C660020003000408B
:1097D4002866002070B5054616460AB90E2070BDED
:1097E400002313600028F9D00368002BF6D0C38847
:1097F40013F003040FD1084603F038FAC0B214285A
:109804000BD02B7983420AD9EB882A6800FB032307
:1098140033602046E3E70720E1E70520DFE7042083
:10982400DDE700000648074A03780749D35C0122B4
:1098340013B1043001F056BF0C3001F04BBD00BF32
:10984400505C0020746900206866002010B5014651
:109854000E4800F023F80446A8B90D480D4A0378D1
:10986400D35C63B1043001F081FF60B90A49074851
:1098740000F026F838B9BDE81040FFF7D3BF0C302C
:1098840001F072FDF1E7204610BD00BF58660020CC
:10989400505C0020746900206866002010B584685C
:1098A400C2688388121B934208D3C26813400268BB
:1098B400D154C3680133C360002010BD0420FCE709
:1098C4008268C3689A420AD0826883881340026817
:1098D400D35C0B70836801338360002070470520DC
:1098E4007047A8DF7047AADF7047AEDF7047B0DF6C
:1098F4007047B5DF704762DF70470000F0B503883A
:10990400502B89B004460E461BD005D8102B12D01C
:10991400112B13D009B0F0BD512B66D0552BF9D1C2
:1099240017218088FFF7E5FF0028F3D04A4A422137
:10993400FDF7E8FBEEE78388B386EBE74FF6FF73AA
:10994400FAE78188706A454D01AAFFF743FF444B4B
:10995400ED1AED082D0428B1A288424945F0010012
:10996400FDF7E2F81822002102A806F0AFFFA38851
:10997400ADF810303189E388019A03969942059233
:109984001CD1278A022F19D16AB104F1120003F005
:10999400CFF9019B68B101221A708DF80870B36A7F
:1099A4000BB102A89847304945F00300FDF7B8F819
:1099B400B0E7187003238DF80830F0E7B2899A42B3
:1099C400F1D1B36A002BEED000238DF80830A27CCD
:1099D400264904F1120345F001000693FDF7A4F8AB
:1099E400238AADF81C30B36ADBE71D4B1B482049C2
:1099F400C01AC008000440F00300FDF791F8A579EF
:109A0400012D87D11022002102A806F05FFF002358
:109A1400ADF80C309DF80E3062898DF8085043F093
:109A240001038DF80E304BF6EF639A427FF472AF68
:109A340001AB05939DF80430A08801338DF8043000
:109A440002A90323ADF81230FFF751FF00283FF4B9
:109A540061AF014A62216BE78A1D030038120300DB
:109A640008120300C61C0300471D0300061D030063
:109A7400F61D03002DE9F04F8A4B9DB008AA03F1AF
:109A8400100680460D461746B246186859681446B3
:109A940003C40833B3422246F7D1B8F1000F00F0F3
:109AA400FE80002D00F0FB802B68C8F828300DF1F3
:109AB4000E013846FFF71FFF4FF20D03ADF80C30CF
:109AC40020B1794A4FF4D071FDF71CFB08F1020272
:109AD40003A90120FFF705FF002840F0E0800CAA4D
:109AE400704B914618685968144603C408335345AB
:109AF4002246F7D14BF6EF630DF112014846ADF85B
:109B04001030FFF7F8FE18B1674ACA21FDF7FAFAD8
:109B14001C22002115A806F0D9FE9DF8543000241B
:109B240001AE43F002032146032230468DF854303F
:109B34001694CDE91844CDE91A4406F0C7FE9DF801
:109B440006301A96012202AE41F2111562F3420365
:109B5400214603223046ADF804508DF8063006F055
:109B6400B5FE9DF80A30ADF8085023F01F0343F00A
:109B74000A032146142210A805AD8DF80A3006F018
:109B8400A5FE0A23ADF84C30ADF8483008230594FF
:109B94006C602C818DF81430444C454B4549149528
:109BA400E41AC346E40824043BF8042F44F00304F5
:109BB400204604AFCDE91076FCF7B6FF5B4610AA49
:109BC40015A9B8F80200FFF78EFE20B1364A40F21C
:109BD4001D11FDF797FA334BCC4618685968624655
:109BE40003C2083353459446F7D14BF6FF630DF196
:109BF40016014846ADF81430FFF77DFE20B12A4A1D
:109C04004FF49B71FDF77EFA1C22002115A806F083
:109C14005DFE9DF85430032243F0080300213046D2
:109C24008DF8543006F052FE9DF80A301A9601223F
:109C340062F3420341F211190322002138468DF8E0
:109C44000A30ADF8089006F041FE9DF81230ADF8E8
:109C5400109023F0070343F003031422002110A8FB
:109C64008DF8123006F032FECDE910574546F72341
:109C740035F80C2F0F49ADF84C302046ADF848307C
:109C8400FCF752FF2B4610AA15A9B8F80200FFF7FB
:109C94002AFE20B1044A4FF4BA71FDF733FA1DB01D
:109CA400BDE8F08FB61C03008A1D030038120300C0
:109CB40008120300221E0300F0B5184B184CE41AD6
:109CC400E4082404054644F0030485B00E46174610
:109CD40020460A881349FCF727FFAA8E4FF6FF7324
:109CE4009A4218D010220021684606F0EFFDAB8896
:109CF400ADF8003001238DF802300B49328800237F
:109D04002046ADF80430CDE90267FCF70DFF694643
:109D1400A88EFFF7EAFD05B0F0BD00BF08120300EE
:109D240038120300081E0300151E03006CDF704781
:109D340070DF704776DF704778DF70477ADF7047EF
:109D44007CDF704733DF7047024A40F24711FDF76A
:109D5400D9B900BFBD1F0300024A4FF4C671FDF715
:109D6400D1B900BFBD1F03002DE9F04707780446B1
:109D7400002F40F097804C4B4C4D4D49DFF85881F3
:109D8400ED1AED082D0445F003063046FCF7C8FE35
:109D9400A38AA8F8003023694648197802F08CF8A1
:109DA40023691A78444BAA2A2CD0B8F800009946A3
:109DB4001A463B4683424ADBDFF814A10027B8F871
:109DC40000309F4249DB3D49DFF8049130460027CB
:109DD400FCF7A6FE39463A4806F0CDFD394902465D
:109DE4003046FCF7A1FE3A4637493046FCF79CFE64
:109DF400B8F800309F4238DBA28A34493046FCF779
:109E040093FE0FE01A703149A28A3046FCF78CFEAB
:109E140023692F491A783046FCF786FE2D493046CF
:109E2400FCF77EFEDFF8B480DFF8B490002645F03E
:109E34000105A28A964220D32369134413F8013CF6
:109E44000D2B2FD10A20FFF701FD1128F9E7216915
:109E5400C95C02F8011B0133ACE719F8012B514628
:109E64003046FCF761FE0137A9E723694946DA5D0C
:109E74003046FCF759FE0137BAE72369985DFFF7CE
:109E8400E5FC074660B11128F7D002464146284652
:109E9400FCF74AFE4A4640F2DA313846FDF732F919
:109EA4000136C6E7BDE8F087081203003812030044
:109EB400001F0300321F0300446900207B1F0300BE
:109EC400881F03004F1E03008B1F0300491F03005C
:109ED400581F03006B1F03006C660020931F0300D0
:109EE400BD1F030008B5064B0648197801F0E4FFCE
:109EF400054B06491A680648BDE80840FFF7DCBE72
:109F0400446900202D200300406900206A66002077
:109F1400FC68002008B5002001F0B8FD20B10C4A0F
:109F24004FF4E171FDF7EEF801F0A4FE20B1084A08
:109F34004FF4E371FDF7E6F8FFF704FF30B1044A8C
:109F44004FF4E571BDE80840FDF7DCB808BD00BF7B
:109F5400BD1F030008B5037863B93B214FF6FF70BA
:109F6400FFF7E8FE30B1044A40F28111BDE8084031
:109F7400FDF7C8B808BD00BFBD1F0300072808B51A
:109F840016D00A2810D004281CD113214FF6FF70D4
:109F9400FFF7D0FE30F0080314D00B4A40F2AD2195
:109FA400BDE80840FDF7AEB8BDE80840FFF7B2BF12
:109FB400064802F021FC30F0080303D0024A40F2C4
:109FC400B721EDE708BD00BFBD1F03007066002088
:109FD40008B5B0B1032818D10C4B0D480D49C01A6F
:109FE400C008000440F00300FCF79AFD022001F0D1
:109FF4004DFD50B1084A4FF4F171BDE80840FDF73A
:10A0040081B8BDE80840FFF785BF08BD081203000A
:10A01400381203001B200300BD1F030008B50321F1
:10A02400054802F06FFA30B1044A40F24A31BDE803
:10A034000840FDF767B808BD70660020BD1F030027
:10A0440010B5044604F0FCFF204604F011FE23780A
:10A054000C2B03D1BDE81040FFF7E0BF10BD08B5DD
:10A06400FCF7F4FB18B9BDE80840FFF771B908BD67
:10A07400024B02881A80024B196070476A660020FE
:10A084004069002070B54FF40041B0B00020FCF7E7
:10A0940083FB20B1B44A40F21231FDF733F8FCF7E8
:10A0A400A5FAB24CB24BB349E41AE408240444F0D0
:10A0B40003042046FCF734FDFDF7A8FA18B1AA4AB8
:10A0C400EF21FDF71FF80121AB4AAC48FDF7CEFAAA
:10A0D400AB49032001F0E6FC20B1A34A40F202316F
:10A0E400FDF710F805A9002001F0D4FD20B19E4A27
:10A0F40040F20531FDF706F89DF81450FFF712F908
:10A1040020B1994A40F22131FCF7FCFF9D492046D9
:10A11400FCF706FD06F04CF820B1934A40F25621B4
:10A12400FCF7F0FF002305A90120059306F014F9BC
:10A1340020B18D4A4FF41771FCF7E4FF05A806F02F
:10A14400D9F920B1884A4FF41871FCF7DBFF1123C9
:10A154008D488DF8003006F035FC8B4982B2684694
:10A16400FFF7EEFD20B1804A40F20D11FCF7CAFF63
:10A1740040F2C330FFF7E0FD20B17B4A40F21111F9
:10A18400FCF7C0FF0822002105A806F09FFB40F25F
:10A19400012305A80593FFF7CBFD20B1724A40F2D5
:10A1A4001911FCF7AFFF0021082203A806F08EFB6B
:10A1B40076494FF0C87303A8CDE90313FFF7BEFD3A
:10A1C40020B1694A40F22311FCF79CFF704B1868D8
:10A1D4009A8801909B79ADF8082001A88DF80A307F
:10A1E400FFF7A4FD20B1604A4FF49571FCF78AFF94
:10A1F40068492046FCF794FC0021674803F010FBF3
:10A2040020B1594A4FF49D71FCF77CFFAC22002128
:10A2140005A806F05BFB614B059301238DF8903094
:10A2240032220023CDE9272305A95D4B5D482E93F7
:10A2340002F0E9F820B14C4A40F2EE21FCF762FF4B
:10A244000121584802F0DCF857492046FCF768FC25
:10A25400564B5748039303A903F0D8FB064620B195
:10A26400414A40F25D11FCF74DFF142200210DEB31
:10A27400020006F02BFB4F4B4F48059305A9FFF74F
:10A28400F9FB2EB1384A40F269113046FCF73AFF27
:10A294001C22002105A806F019FB00234FF42032EC
:10A2A400CDE90532ADF822304FF470228DF8243018
:10A2B400424B07920A930322414B8DF8202005A8B4
:10A2C4000B9302F0B5FB20B1274A4FF4D371FCF78E
:10A2D40019FF04F06FF920B1234A40F27321FCF70F
:10A2E40011FF0522002105A806F0F0FA059B03F0F2
:10A2F4007C42344B134305939DF8183023F0030339
:10A3040043F0030305A88DF8183004F0EDF920B1EB
:10A31400154A40F28621FCF7F5FE2B4804F0CCF9EF
:10A3240020B1114A40F28921FCF7ECFE274920466E
:10A33400FCF7F6FB00224FF400412548FDF7A8F98D
:10A34400022D0DD123492046FCF7EAFB04F024FA40
:10A3540020B1054A40F29621FCF7D4FE30B070BD1E
:10A36400FFF75CFEFAE700BFBD1F030038120300CD
:10A3740008120300591E0300E99E0200FC1E03009C
:10A38400819F0200771E03008D1A03005000A00075
:10A39400521E0300981E0300C8680020010601062F
:10A3A400D59F020070660020B41E03004D9D02007C
:10A3B400346900206D9D0200FC680020599F020052
:10A3C4005D9D02003107100345A00200D51E030065
:10A3D400DC680020EF1E03000C4B1B78062B10D109
:10A3E4000B4B1B681A070CD10A4B186800F0F003DA
:10A3F400302B08D000F0E000A0F14003584258414F
:10A404007047002070470120704700BFE00F00F044
:10A41400E40F00F0E80F00F0094B1B78062B0CD179
:10A42400084B1B681A0708D1074B186800F0F000A6
:10A43400A0F130035842584170470020704700BFD4
:10A44400E00F00F0E40F00F0E80F00F008B5FFF7AC
:10A45400C3FF28B17D4B7E4A1B68C3F304231360FA
:10A46400FFF7DAFF10B17B4B7B4A1A60FFF7B4FFAA
:10A4740028B17A4B7A4A1B68C3F342331360FFF75F
:10A48400CBFF20B1774AD36823F08073D360FFF702
:10A49400A3FF40B14FF080430022C3F80C21C3F85E
:10A4A4001021C3F83825FFF7B7FF10B16E4B032214
:10A4B4001A60FFF7B1FF40B16C4B05221A6001220C
:10A4C4009A6700229A603F225A60694B1B78062BD8
:10A4D40050D1684B1B6819074CD1674B1B6803F0BC
:10A4E400F003502B46D14FF08052644BD2F8041441
:10A4F400C3F82015D2F80814C3F82415D2F80C14A4
:10A50400C3F82815D2F81014C3F82C15D2F8141473
:10A51400C3F83015D2F81814C3F83415D2F81C1443
:10A52400C3F84015D2F82014C3F84415D2F8241403
:10A53400C3F84815D2F82814C3F84C15D2F82C14D3
:10A54400C3F85015D2F83014C3F85415D2F83414A3
:10A55400C3F86015D2F83814C3F86415D2F83C1463
:10A56400C3F86815D2F84014C3F86C15D2F8442423
:10A57400C3F87025FFF730FF28B1414B414A1B68EF
:10A5840003F04F031360FFF727FF48B14FF08043F8
:10A59400D3F80024D20744BF6FF00102C3F80024AB
:10A5A400394B1B68062B08D1384B1B68062B01BF9F
:10A5B400374A136843F480631360364AD2F888300C
:10A5C40043F47003C2F88830BFF34F8FBFF36F8F2B
:10A5D4004FF01023D3F80022002A03DBD3F804320F
:10A5E400002B2FDA2C4B0122C3F80425D3F80024C6
:10A5F400002AFBD04FF010221521C2F80012D3F824
:10A604000024002AFBD04FF010231522C3F80422A3
:10A61400214B1A46D3F800140029FBD00021C3F8BB
:10A624000415D2F80034002BFBD0BFF34F8F194927
:10A634001A4BCA6802F4E0621343CB60BFF34F8F36
:10A6440000BFFDE7164B174A1A6008BD240300102B
:10A654004035014074C007400DF0ADBA440200100B
:10A664003C050040F0ED00E0A0050040105600401D
:10A67400E00F00F0E40F00F0E80F00F000C000402D
:10A6840058020010E40E00403001001034010010A4
:10A694003C17004000ED00E000E001400400FA0532
:10A6A400645C00200090D003054A4FF0A043105C86
:10A6B400D3F8043523FA00F0C04300F001007047DA
:10A6C40046200300044B1A5C012393404FF0A04240
:10A6D400C2F80C35704700BF46200300044B1A5CD7
:10A6E400012393404FF0A042C2F80835704700BFE1
:10A6F4004620030008B50020FFF7F0FF0120FFF714
:10A70400EDFF0220FFF7EAFF0320BDE80840FFF752
:10A71400E5BF08B50020FFF7D5FF0120FFF7D2FF02
:10A724000220FFF7CFFF0320BDE80840FFF7CABFB0
:10A73400074A4FF0A041105CD1F804350122824051
:10A7440022EA03001340C1F80805C1F80C3570472C
:10A7540046200300054A4FF0A043105CD3F810359F
:10A7640023FA00F0C04300F00100704742200300C8
:10A774000D2809D00E2809D00F2809D010280CBFA5
:10A7840003204FF0FF3070470020704701207047CE
:10A7940002207047014B185C704700BF4220030041
:10A7A400C20708B501460CD54FF0A0430322C3F8F5
:10A7B4002427C3F84827C3F84C27C3F85027FFF7CA
:10A7C40099FF8B070AD54FF0A0430C22C3F8342716
:10A7D400C3F83827C3F83C27C3F8402708BD000056
:10A7E40038B5074C051E04F1080318BF1C4623683E
:10A7F4002BB11A6822605B6828469847F7E738BD92
:10A804006069002020B9054B01225A70FFF7E8BFA8
:10A81400012802D1014A9070F8E770475869002076
:10A8240020B9034B01225A70FFF7DABF704700BF0B
:10A834005869002038B50B4C237883B90A48636003
:10A84400A3602361E36000F0C9F8054605F02EFD1E
:10A8540008B900F0CFF801232370284638BD8525B8
:10A86400FBE700BF5869002009A8020037B50B4C6C
:10A8740000230DF107008DF80730FCF75FFFE36854
:10A88400013BE360E56815B900F0C6F8A5709DF8D2
:10A894000700FCF777FF03B030BD00BF5869002004
:10A8A400012813B509D018B103281CD002B010BD7B
:10A8B4000F4B0122C3F88020F8E70E4C00230DF162
:10A8C40007008DF80730FCF739FF23780BB9FFF741
:10A8D400B1FFE3689DF807000133E3600123A3702F
:10A8E400FCF750FFE2E700F085F8FFF7BFFFDDE774
:10A8F40000E100E0586900201FB503788DF80030AE
:10A904004368019383688DF80830C3680393054A4C
:10A91400054B684653F8213052F82110984705B08A
:10A924005DF804FB6C690020706900201FB5037892
:10A934008DF800304368019383688DF80830C3684C
:10A944000393054A054B684653F8213052F8211009
:10A95400984705B05DF804FB6C690020706900201D
:10A96400F0B5194B067891F81DE043F82620174BF3
:10A9740094460A6943F82620154B03F806E00C4672
:10A9840007460FCC89B06D460FC594E80F0085E8E3
:10A994000F000496BEF1000F0AD0BCF1000F0D4A5F
:10A9A400694608BF0022381D00F076FD09B0F0BDED
:10A9B400BCF1000F084A694608BF002207F10C00E9
:10A9C40000F06AFBF2E700BF706900206C690020A8
:10A9D40074690020FDA8020031A90200044A137919
:10A9E40023B9012110609180184670478520704773
:10A9F40078690020074B1A68D2075FBFC02283F82A
:10AA0400002301221A604FF080430122C3F8182565
:10AA1400704700BF00E100E0044B01221A604FF0D0
:10AA24008042D2F81834DB03FBD470470C0000409A
:10AA3400154B07B51A687AB100221A601B68009397
:10AA4400009B4FF080430122C3F808230F4B587931
:10AA540010B95A711B6898470D4B1A6882B10022CD
:10AA64001A601B680193019B4FF080430222C3F8D4
:10AA74000823064B1B68012003B05DF804EB18475C
:10AA840003B05DF804FB00BF0001004078690020BA
:10AA94000401004000F1804000F5C040002382B072
:10AAA400036003680193019B02B07047800000F1CA
:10AAB400A040D0F8003723F44033C0F80037D0F872
:10AAC400003743EA0141C0F800177047054B4FF0C7
:10AAD400FF32072843F8202084BF1B1883F848203E
:10AAE400704700BF8069002010B5174C94F85830A7
:10AAF40043BB04F130032021FF22013911F0FF018F
:10AB040003F8012BF9D1C8B2FFF7E0FF01310C299A
:10AB1400F9D1042200210D4805F0D8FE0C4BC022C7
:10AB240083F8062340221A604FF4BE70FFF7B2FF89
:10AB3400084B4FF00042C3F80423012384F8583033
:10AB4400002010BD0820FCE780690020D4690020A3
:10AB540000E100E000600040034B93F8580000302F
:10AB640018BF0120704700BF80690020F0B5374B43
:10AB74001C1894F93040002C1C4664DA8D78C5F317
:10AB84004005002D0BBF082300230C260826B342E2
:10AB940001D10420F0BD54F8237001373FD12618A9
:10ABA40044F8232086F8303015B9E21882F84800BA
:10ABB4008A78550713D4D60733D5820002F1A04210
:10ABC400D2F8005725F00205C2F80057204EC508F8
:10ABD40000F007070122BA40775D3A4372558A783C
:10ABE4000D7812F0020225D09B0003F1804303F597
:10ABF400C0430202D3F8101521F4473121F4407107
:10AC0400C3F810152D04D3F8101502F4F85205F406
:10AC140040352A430A43C3F810250020BAE701331C
:10AC2400B5E74D7800F5E0724FF0A046AD0046F868
:10AC34002250CBE7083B234493F8501041EA851592
:10AC440083F85050E9E70820A4E700BF806900209A
:10AC5400D469002038B5204C251895F93020072AEE
:10AC640018DD224492F848309B09032B0DD14FF094
:10AC7400A043D3F81035C34013F0010F0CBF0221D9
:10AC84000321BDE83840FFF711BF012B14BF032196
:10AC94000221F6E7D3B2072B1CD8930003F18043BB
:10ACA40003F5C043D3F8100540F00100C3F81005C4
:10ACB40002F14000800080B2FFF7ECFE51B195F93B
:10ACC400303054F823302BB1012303FA02F2034B42
:10ACD400C3F8042338BD00BF806900200060004031
:10ACE4004FF0A043D3F8103523FA00F000F0010030
:10ACF400704700002DE9F04F85B000245A4D0194AF
:10AD04004FF48072012102F1804303F5C04390B2F5
:10AD14001B68012B06D1D5F804330B4202D0FFF790
:10AD2400B9FE0C430432B2F5907F4FEA4101EAD1F7
:10AD34004E4B1B68012B0AD14FF4BE70FFF7AAFEDD
:10AD44004FF0A04344F00044D3F81035019314F0BD
:10AD5400FF0F1AD0464F00250126344210D0AB0015
:10AD640003F1804303F5C043D3F81005D3F810155D
:10AD740057F8253023B1C1F30141C0F304209847AB
:10AD84000135082D4FEA4606E7D1002C64DA00228B
:10AD94004FF0FF33CDE90223354D01274FF0000A70
:10ADA400344E54464FF0A04816F9012B531C46D09C
:10ADB400D2B222F0C0094FEAD90104A8084402F033
:10ADC400070310F804CC07FA03F31CEA030F36D088
:10ADD40005EB090C92099CF930C055F82CB0BBF175
:10ADE400000F0AD1032A2AD10DF1080E1EF801C062
:10ADF4004CEA030C0EF801C001E0032AF4D009F573
:10AE0400E07110F80C0C58F821101842C1F30141FC
:10AE140005D0022913D1032A0BD1114604E00329DA
:10AE24000DD1032A05D102214846FFF73FFE013424
:10AE3400E4B2BBF1000F02D011464846D8470AF1EC
:10AE4400010ABAF1040FAFD134B14FF0A043019A13
:10AE5400D3F81035934202D105B0BDE8F08F0193C9
:10AE6400029B03939AE700BF006000407C610040AE
:10AE740080690020D0690020014B1B68184700BF7F
:10AE8400DC6900200E4B984237B50D4602D00020F5
:10AE940003B030BD00230DF107008DF80730FCF737
:10AEA4004DFC084B1C7914B901221D601A719DF8E0
:10AEB4000700FCF767FC002CE9D01120E8E700BF8D
:10AEC40000200040DC690020034B984201BF034B83
:10AED40000221A601A71704700200040DC690020CB
:10AEE4000023435082B043580193019B02B0704742
:10AEF4000A4610B54FF48E71FFF7F2FF136A91689A
:10AF0400C95C136A01331362C0F81C1510BD8B6948
:10AF14000A4610B54FF4847123B9FFF7E1FFD0F866
:10AF2400183510BDFFF7DCFF536AD168D0F8180557
:10AF3400C854536A01335362F3E700001FB5012379
:10AF44008DF80030044BCDE90110D3E900126846B6
:10AF5400904705B05DF804FBE469002030B54C4A25
:10AF6400D2F8043313F4007F85B015464FD0D2F8DD
:10AF74002431002B4BD04FF492711046FFF7B0FFF1
:10AF84004FF40173C2F80833424B93F8291009B9FE
:10AF9400012151603E4902228DF80020D1F880241D
:10AFA400C1F8802403929A690292DA68019200221D
:10AFB400C3E906226846D3E9001290473448D0F822
:10AFC4001C315BB133490A6A4B699A420A464BD237
:10AFD40091F82830002B47D1FFF78AFF2C4AD2F88A
:10AFE400443193B14FF4A2711046FFF779FF294B16
:10AFF40093F8291009B1012111609A692AB100223C
:10B004009A61586AD968FFF799FF05B030BDD5F841
:10B0140004335B07D2D5D5F80831002BCED01D4CB4
:10B024001B482146FFF773FF636AA2699A422346CD
:10B03400C4D1E269E1684AB12369E3600023606A2C
:10B04400A261E3616362FFF779FFB7E794F829200F
:10B054000AB901226A600E4A4FF40170C2F808036B
:10B0640000229A61586AEEE74FF48E710848FFF7A0
:10B0740037FF51690029B1D00023029191688DF8FE
:10B084000030019153616846D2E900139847A5E75F
:10B0940000200040E46900202DE9F843564F04796C
:10B0A40091462C2202FB0472064692F82A200D4691
:10B0B400002A40F09A8051490068FFF7E3FE804679
:10B0C400002840F0958029683368481C0BD04FF065
:10B0D400A04001228A40C0F8082501F5E0724FF033
:10B0E400030C40F822C06868421C1FBF00F5E072E0
:10B0F4004FF0A04C4FF0000E4CF822E0AA6995F8EE
:10B1040014C0C3F824256A7DBCF1010F4CEA020285
:10B11400C3F86C25C3F81405C3F80C151DD1AA682F
:10B12400511C1FBF02F5E0714FF0A0404FF0000C1E
:10B1340040F821C0E968481C0BD04FF0A04C012016
:10B144008840CCF8080501F5E0704FF0030E4CF888
:10B1540020E0C3F80815C3F810252C236343FA181C
:10B16400C2F804902A69FA50B9F1000F2AD04FF4BA
:10B174008E7130682D7FFFF7B3FE30684FF4A271F3
:10B18400FFF7AEFE32681E4BC2F80433120B51B205
:10B194000029A8BF01F160404FEA4513BABF19481E
:10B1A40002F00F0500F56140DBB2B4BF435580F8EF
:10B1B400003302F01F02012303FA02F24909124B81
:10B1C40043F8212033680422C3F800252C2303FB11
:10B1D40004730022C3E9062283F829205A6101225C
:10B1E40083F82A204046BDE8F8834FF00808F9E7C1
:10B1F4004FF01108F6E700BFE469002061AF0200D8
:10B204008000020014ED00E000E100E0F8B50479EC
:10B2140000682D4D0023C0F800352C2303FB045394
:10B224005B6873B1294BC0F80833020B53B2012198
:10B234005B0902F01F0201FA02F22033244941F8AB
:10B244002320D0F80C65D0F81415D0F80835D0F8C0
:10B2540010254FF0FF37BE42C0F8147518BF06F52D
:10B26400E076C0F80C75C0F80875C0F810751EBFFC
:10B274004FF0A0474FF0020C47F826C04E1C1FBFEA
:10B284004FF0A04601F5E071022746F82170511CE9
:10B294001FBF4FF0A04102F5E072022641F8226080
:10B2A4005A1C1FBF03F5E0734FF0A042022142F87D
:10B2B4002310FFF709FE2C2303FB0454002384F816
:10B2C4002A306360F8BD00BFE469002084020200F4
:10B2D40000E100E02DE9F843224F06794FF02C09F4
:10B2E40009FB067480466569002D37D16261A1604F
:10B2F40025624FF48E71006884F82850FFF7F0FD42
:10B30400D8F80000012383602146FFF7F1FD63684C
:10B31400A1462BBBD8F80050226A63699A4212D323
:10B32400D8F80030D3F81C21002AFBD00122DA60BF
:10B3340000202C2303FB067600237361BDE8F88309
:10B3440094F8283043B9D5F81C31002BF8D049467D
:10B354002846FFF7CDFDDFE70F20EAE71120EDE7F0
:10B364002846EBE7E46900200379044A2C2101FB19
:10B3740003235869003018BF01207047E469002096
:10B384000023435082B043580193019B02B070479D
:10B394001FB501238DF80030044BCDE90110D3E92A
:10B3A40000126846904705B05DF804FB106A00205F
:10B3B4007FB5374AD2F82461002E48D010464FF4A6
:10B3C4009271FFF7DDFF02238DF80030D2F880344C
:10B3D400C2F880340393D2F83C3502932D4BDA68DB
:10B3E40001920022C3E906226846D3E9001290477D
:10B3F400274AD2F844317BB14FF4A2711046FFF7CB
:10B40400BFFF244B996939B10021C3E90611D968FA
:10B41400D2F83C05FFF7BCFF1D4AD2F82031A3B196
:10B424004FF490711046FFF7ABFF1A4B596961B1A5
:10B43400D2F84C150291002299688DF800200191F0
:10B444005A616846D3E90012904704B070BDD2F83F
:10B454001031002BCCD04FF488711046FFF790FFC9
:10B464000C4BD2F83C0599698842C1D1DC69D96892
:10B4740064B1D2F8005225F02005C2F800521A69CE
:10B484009C61DA60DE61FFF783FFB1E79C61FAE754
:10B4940000200040106A00202DE9F8435A4F067935
:10B4A4009146242202FB0672044692F820200D469F
:10B4B400002A40F0A28055490068FFF7E3FC80466B
:10B4C400002840F09D8029682368481C0BD04FF069
:10B4D400A04001228A40C0F8082501F5E0724FF02F
:10B4E400030C40F822C06868421C1FBF00F5E072DC
:10B4F4004FF0A04C4FF0000E4CF822E0AA6995F8EA
:10B5040014C0C3F824256A7DBCF1010F4CEA020281
:10B51400C3F86C25C3F80C15C3F814051DD1AA682B
:10B52400511C1FBF02F5E0714FF0A0404FF0000C1A
:10B5340040F821C0E968481C0BD04FF0A04C012012
:10B544008840CCF8080501F5E0704FF0030E4CF884
:10B5540020E0C3F80815C3F8102524237343FA1810
:10B56400C2F804902A69FA50B9F1000F34D04FF4AC
:10B57400887120682D7FFFF703FF4FF490712068D6
:10B58400FFF7FEFE4FF492712068FFF7F9FE206882
:10B594004FF4A271FFF7F4FE22681D4BC2F8043386
:10B5A400120B51B20029A8BF01F160404FEA4513C4
:10B5B400BABF184802F00F0500F56140DBB2B4BF12
:10B5C400435580F8003302F01F02012303FA02F20C
:10B5D4004909114B43F8212023680822C3F80025A8
:10B5E400242303FB06730022C3E906225A610122C5
:10B5F40083F820204046BDE8F8834FF00808F9E7B7
:10B604004FF01108F6E700BF106A0020B5B302003E
:10B614001003020014ED00E000E100E0F8B5047945
:10B6240000682D4D0023C0F80035242303FB045388
:10B634005B6873B1294BC0F80833020B53B2012184
:10B644005B0902F01F0201FA02F22033244941F897
:10B654002320D0F80C65D0F81415D0F80835D0F8AC
:10B6640010254FF0FF37BE42C0F80C7518BF06F521
:10B67400E076C0F81475C0F80875C0F810751EBFE0
:10B684004FF0A0474FF0020C47F826C04E1C1FBFD6
:10B694004FF0A04601F5E071022746F82170511CD5
:10B6A4001FBF4FF0A04102F5E072022641F822606C
:10B6B4005A1C1FBF03F5E0734FF0A042022142F869
:10B6C4002310FFF701FC242303FB0454002384F814
:10B6D40020306360F8BD00BF106A00201003020030
:10B6E40000E100E001F06043B3F1005F2DE9F041B7
:10B6F400074632D11C4B0679242505FB06359846AE
:10B704006C6964BB6A61A96000684FF49071FFF7CB
:10B7140037FE4FF4AC713868FFF732FE3B686A6954
:10B72400A968C3F84415C3F8482501229A606A68D9
:10B73400BAB9D3F82011D3F8582149B9002AF8D05E
:10B744000F20242303FB068600237361BDE8F081E8
:10B75400002A14BF0F200020F3E71020F6E7112081
:10B76400F4E72046F2E700BF106A00200379044A98
:10B77400242101FB03235869003018BF01207047BE
:10B78400106A00200220FEF7D3BF00002DE9F04725
:10B7940081460D46FEF7ECFF0328044604D8012D2C
:10B7A40004D025B3022D2FD0BDE8F087194D4700F2
:10B7B4003A18A918AE5C4A7852B1DFF86880164886
:10B7C40042464FF40041FBF763FF08B988F8009044
:10B7D4003B192B449A78114B1A55002EE4D0104B88
:10B7E4001B68002BE0D03046BDE8F04718470A48F4
:10B7F400FBF794FF074B04EB440213449E78074B7A
:10B804001B5DB342D0D1E8E7024B00EB40041C447B
:10B814006678E2E7986A0020586A0020B16A00203E
:10B82400AC6A0020346A002002210078FFF7AEBF22
:10B8340008B5094B1B7853B10020FEF74FFF0120D8
:10B84400FEF74CFF0320BDE80840FEF747BFBDE804
:10B854000840FEF74FBF00BF356A0020F8B57C4CA6
:10B86400237805461BB100232370FFF7E1FF172D52
:10B8740000F28880DFE805F00C17174354657680E2
:10B88400888E888E979C9C9C9C9CC6CBD3DBE6E6DA
:10B89400FFF7CEFF6F48FBF741FF6F4B00220446D2
:10B8A4001A702046F8BD0020FEF7FEFEF8B1002015
:10B8B400FEF714FF022D0CBF4FF4E1614FF47A61DF
:10B8C400654B1D704FF400404FF4FA740025E0FB03
:10B8D40001454FF47A7200232046294604F078FE8D
:10B8E400002201465B48BDE8F840FBF7D1BEFEF7F5
:10B8F400E9FE022D0CBFC8214FF4C871E0E7002017
:10B90400FEF7D2FE40B10020FEF7E8FE4FF4487186
:10B91400514B03221A70D5E7FEF7D4FEC821F7E78E
:10B924000020FEF7C1FE38B10020FEF7D7FE4FF429
:10B934007A61494B0422EDE7FEF7C4FE4FF4C87167
:10B94400F7E70020FEF7B0FE48B10020FEF7C6FE80
:10B95400414B05221A7041F69A110022C2E7FEF704
:10B96400B1FEF5E70020FEF7E3FE3B4B06221A701A
:10B97400002240F6CD41B5E70020FEF7A3FE364B8A
:10B9840007221A7000248CE701231B202370FEF782
:10B99400CFFEEDE701231B202370FEF7C9FE002232
:10B9A4004FF480419EE7FEF7B4FE2B4B0C22E8E7F0
:10B9B4002A482B4EFBF7B2FED5F1110504461CD0E4
:10B9C400D8B9012D13D0C8235D434FF400474FF479
:10B9D400FA7000214FF47A720023C7FB050104F0CA
:10B9E400F7FD224601461D48FBF752FE044602209D
:10B9F400FEF768FE0123337053E70220FEF76EFE64
:10BA04000023F8E7FFF714FF134B1222B9E7FFF7FF
:10BA14000FFF0020FEF756FE0F4B1322B1E7FFF78E
:10BA240007FF1B20FEF74EFE0B4B1422A9E7FFF77E
:10BA3400FFFE0020FEF746FE1B20FEF743FE064BEA
:10BA440015229EE7FEF765FE034B1D709AE700BFC3
:10BA5400A86A0020786A0020B06A0020386A0020B2
:10BA6400356A0020044B1B68DB0703D5034B1878A9
:10BA7400FFF7F4BE704700BFA46A0020B06A00203C
:10BA8400032801D8FEF766BE00207047044B1B68EC
:10BA940013F0010301D0FFF7E1BE1846704700BF61
:10BAA400A46A002038B51C4B18601C4B10F002042B
:10BAB400054619601AD01A4B1A480E221A700F2222
:10BAC400DA7010229A7111225A72042140F26662CD
